{
  "contractName": "DEXHIGH2",
  "abi": [
    {
      "constant": true,
      "inputs": [],
      "name": "ownerId",
      "outputs": [
        {
          "name": "",
          "type": "uint32"
        }
      ],
      "payable": false,
      "stateMutability": "view",
      "type": "function"
    },
    {
      "constant": true,
      "inputs": [
        {
          "name": "a",
          "type": "uint256"
        },
        {
          "name": "b",
          "type": "uint256"
        }
      ],
      "name": "Sub",
      "outputs": [
        {
          "name": "",
          "type": "uint256"
        }
      ],
      "payable": false,
      "stateMutability": "pure",
      "type": "function"
    },
    {
      "constant": true,
      "inputs": [],
      "name": "acccountId",
      "outputs": [
        {
          "name": "",
          "type": "uint32"
        }
      ],
      "payable": false,
      "stateMutability": "view",
      "type": "function"
    },
    {
      "constant": true,
      "inputs": [],
      "name": "newProductFee",
      "outputs": [
        {
          "name": "",
          "type": "uint256"
        }
      ],
      "payable": false,
      "stateMutability": "view",
      "type": "function"
    },
    {
      "constant": true,
      "inputs": [
        {
          "name": "a",
          "type": "uint256"
        },
        {
          "name": "b",
          "type": "uint256"
        }
      ],
      "name": "Mul",
      "outputs": [
        {
          "name": "",
          "type": "uint256"
        }
      ],
      "payable": false,
      "stateMutability": "pure",
      "type": "function"
    },
    {
      "constant": true,
      "inputs": [],
      "name": "newOwnerFee",
      "outputs": [
        {
          "name": "",
          "type": "uint256"
        }
      ],
      "payable": false,
      "stateMutability": "view",
      "type": "function"
    },
    {
      "constant": true,
      "inputs": [
        {
          "name": "a",
          "type": "uint256"
        },
        {
          "name": "b",
          "type": "uint256"
        }
      ],
      "name": "Add",
      "outputs": [
        {
          "name": "",
          "type": "uint256"
        }
      ],
      "payable": false,
      "stateMutability": "pure",
      "type": "function"
    },
    {
      "constant": true,
      "inputs": [],
      "name": "productId",
      "outputs": [
        {
          "name": "",
          "type": "uint32"
        }
      ],
      "payable": false,
      "stateMutability": "view",
      "type": "function"
    },
    {
      "inputs": [],
      "payable": false,
      "stateMutability": "nonpayable",
      "type": "constructor"
    },
    {
      "anonymous": false,
      "inputs": [
        {
          "indexed": true,
          "name": "prCode",
          "type": "uint32"
        },
        {
          "indexed": true,
          "name": "owner",
          "type": "address"
        },
        {
          "indexed": false,
          "name": "amount",
          "type": "uint256"
        }
      ],
      "name": "Deposit",
      "type": "event"
    },
    {
      "anonymous": false,
      "inputs": [
        {
          "indexed": true,
          "name": "prCode",
          "type": "uint32"
        },
        {
          "indexed": true,
          "name": "owner",
          "type": "address"
        },
        {
          "indexed": false,
          "name": "amount",
          "type": "uint256"
        }
      ],
      "name": "Withdraw",
      "type": "event"
    },
    {
      "anonymous": false,
      "inputs": [
        {
          "indexed": true,
          "name": "prTrade",
          "type": "uint32"
        },
        {
          "indexed": true,
          "name": "prBase",
          "type": "uint32"
        },
        {
          "indexed": true,
          "name": "owner",
          "type": "address"
        },
        {
          "indexed": false,
          "name": "id",
          "type": "uint32"
        },
        {
          "indexed": false,
          "name": "isSell",
          "type": "bool"
        },
        {
          "indexed": false,
          "name": "price",
          "type": "uint256"
        },
        {
          "indexed": false,
          "name": "amount",
          "type": "uint256"
        },
        {
          "indexed": false,
          "name": "timestamp",
          "type": "uint64"
        }
      ],
      "name": "NewOrder",
      "type": "event"
    },
    {
      "anonymous": false,
      "inputs": [
        {
          "indexed": true,
          "name": "prTrade",
          "type": "uint32"
        },
        {
          "indexed": true,
          "name": "prBase",
          "type": "uint32"
        },
        {
          "indexed": false,
          "name": "price",
          "type": "uint256"
        }
      ],
      "name": "NewAsk",
      "type": "event"
    },
    {
      "anonymous": false,
      "inputs": [
        {
          "indexed": true,
          "name": "prTrade",
          "type": "uint32"
        },
        {
          "indexed": true,
          "name": "prBase",
          "type": "uint32"
        },
        {
          "indexed": false,
          "name": "price",
          "type": "uint256"
        }
      ],
      "name": "NewBid",
      "type": "event"
    },
    {
      "anonymous": false,
      "inputs": [
        {
          "indexed": false,
          "name": "prTrade",
          "type": "uint32"
        },
        {
          "indexed": false,
          "name": "prBase",
          "type": "uint32"
        },
        {
          "indexed": true,
          "name": "bidId",
          "type": "uint32"
        },
        {
          "indexed": true,
          "name": "askId",
          "type": "uint32"
        },
        {
          "indexed": false,
          "name": "isSell",
          "type": "bool"
        },
        {
          "indexed": false,
          "name": "price",
          "type": "uint256"
        },
        {
          "indexed": false,
          "name": "amount",
          "type": "uint256"
        },
        {
          "indexed": false,
          "name": "timestamp",
          "type": "uint64"
        }
      ],
      "name": "NewTrade",
      "type": "event"
    },
    {
      "constant": false,
      "inputs": [],
      "name": "AddOwner",
      "outputs": [],
      "payable": true,
      "stateMutability": "payable",
      "type": "function"
    },
    {
      "constant": false,
      "inputs": [
        {
          "name": "ownerFee",
          "type": "uint256"
        }
      ],
      "name": "SetOwnerFee",
      "outputs": [],
      "payable": false,
      "stateMutability": "nonpayable",
      "type": "function"
    },
    {
      "constant": true,
      "inputs": [],
      "name": "GetOnwerList",
      "outputs": [
        {
          "name": "owners",
          "type": "address[]"
        },
        {
          "name": "ownerIds",
          "type": "uint32[]"
        }
      ],
      "payable": false,
      "stateMutability": "view",
      "type": "function"
    },
    {
      "constant": false,
      "inputs": [
        {
          "name": "product",
          "type": "address"
        }
      ],
      "name": "AddProduct",
      "outputs": [],
      "payable": true,
      "stateMutability": "payable",
      "type": "function"
    },
    {
      "constant": false,
      "inputs": [
        {
          "name": "productFee",
          "type": "uint256"
        }
      ],
      "name": "SetProductFee",
      "outputs": [],
      "payable": false,
      "stateMutability": "nonpayable",
      "type": "function"
    },
    {
      "constant": true,
      "inputs": [],
      "name": "GetProductList",
      "outputs": [
        {
          "name": "products",
          "type": "address[]"
        },
        {
          "name": "productIds",
          "type": "uint32[]"
        }
      ],
      "payable": false,
      "stateMutability": "view",
      "type": "function"
    },
    {
      "constant": true,
      "inputs": [],
      "name": "GetAccountList",
      "outputs": [
        {
          "name": "owners",
          "type": "address[]"
        },
        {
          "name": "Ids",
          "type": "uint32[]"
        }
      ],
      "payable": false,
      "stateMutability": "view",
      "type": "function"
    },
    {
      "constant": false,
      "inputs": [],
      "name": "depositETH",
      "outputs": [],
      "payable": true,
      "stateMutability": "payable",
      "type": "function"
    },
    {
      "constant": false,
      "inputs": [
        {
          "name": "amount",
          "type": "uint256"
        }
      ],
      "name": "withdrawETH",
      "outputs": [],
      "payable": false,
      "stateMutability": "nonpayable",
      "type": "function"
    },
    {
      "constant": false,
      "inputs": [
        {
          "name": "token",
          "type": "address"
        },
        {
          "name": "amount",
          "type": "uint256"
        }
      ],
      "name": "depositERC20",
      "outputs": [],
      "payable": false,
      "stateMutability": "nonpayable",
      "type": "function"
    },
    {
      "constant": false,
      "inputs": [
        {
          "name": "token",
          "type": "address"
        },
        {
          "name": "amount",
          "type": "uint256"
        }
      ],
      "name": "withdrawERC20",
      "outputs": [],
      "payable": false,
      "stateMutability": "nonpayable",
      "type": "function"
    },
    {
      "constant": false,
      "inputs": [
        {
          "name": "price",
          "type": "uint256"
        }
      ],
      "name": "GetDownTick",
      "outputs": [
        {
          "name": "",
          "type": "uint256"
        }
      ],
      "payable": false,
      "stateMutability": "nonpayable",
      "type": "function"
    },
    {
      "constant": false,
      "inputs": [
        {
          "name": "price",
          "type": "uint256"
        }
      ],
      "name": "GetUpTick",
      "outputs": [
        {
          "name": "",
          "type": "uint256"
        }
      ],
      "payable": false,
      "stateMutability": "nonpayable",
      "type": "function"
    }
  ],
  "bytecode": "0x608060405234801561001057600080fd5b50336000806101000a81548173ffffffffffffffffffffffffffffffffffffffff021916908373ffffffffffffffffffffffffffffffffffffffff16021790555061006861008f640100000000026401000000009004565b6001600460006101000a81548163ffffffff021916908363ffffffff160217905550610207565b60015434101515156100a057600080fd5b6000600360003373ffffffffffffffffffffffffffffffffffffffff1673ffffffffffffffffffffffffffffffffffffffff16815260200190815260200160002060009054906101000a900463ffffffff1663ffffffff1614151561010457600080fd5b6000601481819054906101000a900463ffffffff1660010191906101000a81548163ffffffff021916908363ffffffff1602179055600360003373ffffffffffffffffffffffffffffffffffffffff1673ffffffffffffffffffffffffffffffffffffffff16815260200190815260200160002060006101000a81548163ffffffff021916908363ffffffff16021790555033600260008060149054906101000a900463ffffffff1663ffffffff1663ffffffff16815260200190815260200160002060006101000a81548173ffffffffffffffffffffffffffffffffffffffff021916908373ffffffffffffffffffffffffffffffffffffffff160217905550565b611a88806102166000396000f30060806040526004361061011d576000357c0100000000000000000000000000000000000000000000000000000000900463ffffffff168063019c08f5146101225780631ec9c2c0146101595780632b8fe48a146101a45780633e185023146101da5780634f34e1f91461021157806354babd721461023c57806360953744146102f057806372c5623f1461033b57806375caaf85146103685780637afbe4f1146103935780638f95b64f146103de57806397feb9261461040b578063a1db978214610458578063a7132357146104a5578063a99473ee146104e6578063ba796817146104f0578063c5ce391114610531578063e4c59a1714610568578063f14210a61461061c578063f6326fb314610649578063f929e71114610653575b600080fd5b34801561012e57600080fd5b50610137610707565b604051808263ffffffff1663ffffffff16815260200191505060405180910390f35b34801561016557600080fd5b5061018e600480360381019080803590602001909291908035906020019092919050505061071d565b6040518082815260200191505060405180910390f35b6101d8600480360381019080803573ffffffffffffffffffffffffffffffffffffffff169060200190929190505050610736565b005b3480156101e657600080fd5b506101ef61096b565b604051808263ffffffff1663ffffffff16815260200191505060405180910390f35b34801561021d57600080fd5b50610226610981565b6040518082815260200191505060405180910390f35b34801561024857600080fd5b50610251610987565b604051808060200180602001838103835285818151815260200191508051906020019060200280838360005b8381101561029857808201518184015260208101905061027d565b50505050905001838103825284818151815260200191508051906020019060200280838360005b838110156102da5780820151818401526020810190506102bf565b5050505090500194505050505060405180910390f35b3480156102fc57600080fd5b506103256004803603810190808035906020019092919080359060200190929190505050610b24565b6040518082815260200191505060405180910390f35b34801561034757600080fd5b5061036660048036038101908080359060200190929190505050610b57565b005b34801561037457600080fd5b5061037d610bbc565b6040518082815260200191505060405180910390f35b34801561039f57600080fd5b506103c86004803603810190808035906020019092919080359060200190929190505050610bc2565b6040518082815260200191505060405180910390f35b3480156103ea57600080fd5b5061040960048036038101908080359060200190929190505050610bec565b005b34801561041757600080fd5b50610456600480360381019080803573ffffffffffffffffffffffffffffffffffffffff16906020019092919080359060200190929190505050610c51565b005b34801561046457600080fd5b506104a3600480360381019080803573ffffffffffffffffffffffffffffffffffffffff16906020019092919080359060200190929190505050610e95565b005b3480156104b157600080fd5b506104d0600480360381019080803590602001909291905050506110fe565b6040518082815260200191505060405180910390f35b6104ee611172565b005b3480156104fc57600080fd5b5061051b600480360381019080803590602001909291905050506112ea565b6040518082815260200191505060405180910390f35b34801561053d57600080fd5b50610546611364565b604051808263ffffffff1663ffffffff16815260200191505060405180910390f35b34801561057457600080fd5b5061057d61137a565b604051808060200180602001838103835285818151815260200191508051906020019060200280838360005b838110156105c45780820151818401526020810190506105a9565b50505050905001838103825284818151815260200191508051906020019060200280838360005b838110156106065780820151818401526020810190506105eb565b5050505090500194505050505060405180910390f35b34801561062857600080fd5b5061064760048036038101908080359060200190929190505050611518565b005b610651611658565b005b34801561065f57600080fd5b50610668611707565b604051808060200180602001838103835285818151815260200191508051906020019060200280838360005b838110156106af578082015181840152602081019050610694565b50505050905001838103825284818151815260200191508051906020019060200280838360005b838110156106f15780820151818401526020810190506106d6565b5050505090500194505050505060405180910390f35b600060149054906101000a900463ffffffff1681565b600082821115151561072b57fe5b818303905092915050565b6000600554341015151561074957600080fd5b6000600760008473ffffffffffffffffffffffffffffffffffffffff1673ffffffffffffffffffffffffffffffffffffffff16815260200190815260200160002060009054906101000a900463ffffffff1663ffffffff161415156107ad57600080fd5b600360003373ffffffffffffffffffffffffffffffffffffffff1673ffffffffffffffffffffffffffffffffffffffff16815260200190815260200160002060009054906101000a900463ffffffff16905060008163ffffffff161415151561081557600080fd5b6004600081819054906101000a900463ffffffff1660010191906101000a81548163ffffffff021916908363ffffffff1602179055600760008473ffffffffffffffffffffffffffffffffffffffff1673ffffffffffffffffffffffffffffffffffffffff16815260200190815260200160002060006101000a81548163ffffffff021916908363ffffffff1602179055508160066000600460009054906101000a900463ffffffff1663ffffffff1663ffffffff16815260200190815260200160002060006101000a81548173ffffffffffffffffffffffffffffffffffffffff021916908373ffffffffffffffffffffffffffffffffffffffff1602179055508060086000600460009054906101000a900463ffffffff1663ffffffff1663ffffffff16815260200190815260200160002060006101000a81548163ffffffff021916908363ffffffff1602179055505050565b600960009054906101000a900463ffffffff1681565b60055481565b60608060008060149054906101000a900463ffffffff1663ffffffff166040519080825280602002602001820160405280156109d25781602001602082028038833980820191505090505b509250600060149054906101000a900463ffffffff1663ffffffff16604051908082528060200260200182016040528015610a1c5781602001602082028038833980820191505090505b509150600190505b600060149054906101000a900463ffffffff1663ffffffff168163ffffffff16111515610b1f57600260008263ffffffff1663ffffffff16815260200190815260200160002060009054906101000a900473ffffffffffffffffffffffffffffffffffffffff16836001830363ffffffff16815181101515610aa257fe5b9060200190602002019073ffffffffffffffffffffffffffffffffffffffff16908173ffffffffffffffffffffffffffffffffffffffff168152505080826001830363ffffffff16815181101515610af657fe5b9060200190602002019063ffffffff16908163ffffffff16815250508080600101915050610a24565b509091565b60008082840290506000841480610b455750828482811515610b4257fe5b04145b1515610b4d57fe5b8091505092915050565b6000809054906101000a900473ffffffffffffffffffffffffffffffffffffffff1673ffffffffffffffffffffffffffffffffffffffff163373ffffffffffffffffffffffffffffffffffffffff16141515610bb257600080fd5b8060018190555050565b60015481565b6000808284019050838110158015610bda5750828110155b1515610be257fe5b8091505092915050565b6000809054906101000a900473ffffffffffffffffffffffffffffffffffffffff1673ffffffffffffffffffffffffffffffffffffffff163373ffffffffffffffffffffffffffffffffffffffff16141515610c4757600080fd5b8060058190555050565b6000806000600760008673ffffffffffffffffffffffffffffffffffffffff1673ffffffffffffffffffffffffffffffffffffffff16815260200190815260200160002060009054906101000a900463ffffffff16925060008363ffffffff1614151515610cbe57600080fd5b610cc66118a5565b91508473ffffffffffffffffffffffffffffffffffffffff166323b872dd3330876040518463ffffffff167c0100000000000000000000000000000000000000000000000000000000028152600401808473ffffffffffffffffffffffffffffffffffffffff1673ffffffffffffffffffffffffffffffffffffffff1681526020018373ffffffffffffffffffffffffffffffffffffffff1673ffffffffffffffffffffffffffffffffffffffff1681526020018281526020019350505050602060405180830381600087803b158015610d9f57600080fd5b505af1158015610db3573d6000803e3d6000fd5b505050506040513d6020811015610dc957600080fd5b81019080805190602001909291905050501515610de557600080fd5b600d60008463ffffffff1663ffffffff16815260200190815260200160002060008363ffffffff1663ffffffff1681526020019081526020016000209050610e31816001015485610bc2565b81600101819055503373ffffffffffffffffffffffffffffffffffffffff168363ffffffff167f4393fbdb02c15e0ec05c3d79e1bf4cdbbe880420d65b41ef8cfeb6ac46ed062f866040518082815260200191505060405180910390a35050505050565b6000806000600760008673ffffffffffffffffffffffffffffffffffffffff1673ffffffffffffffffffffffffffffffffffffffff16815260200190815260200160002060009054906101000a900463ffffffff16925060008363ffffffff1614151515610f0257600080fd5b600b60003373ffffffffffffffffffffffffffffffffffffffff1673ffffffffffffffffffffffffffffffffffffffff16815260200190815260200160002060009054906101000a900463ffffffff16915060008263ffffffff161415156110f757600d60008463ffffffff1663ffffffff16815260200190815260200160002060008363ffffffff1663ffffffff1681526020019081526020016000209050610fb081600101548561071d565b81600101819055508473ffffffffffffffffffffffffffffffffffffffff1663a9059cbb33866040518363ffffffff167c0100000000000000000000000000000000000000000000000000000000028152600401808373ffffffffffffffffffffffffffffffffffffffff1673ffffffffffffffffffffffffffffffffffffffff16815260200182815260200192505050602060405180830381600087803b15801561105b57600080fd5b505af115801561106f573d6000803e3d6000fd5b505050506040513d602081101561108557600080fd5b810190808051906020019092919050505015156110a157600080fd5b3373ffffffffffffffffffffffffffffffffffffffff168363ffffffff167ff5268115655ff7b41f1875fc9490ca950f18b2beac911d3967f69972b90f4590866040518082815260200191505060405180910390a35b5050505050565b60008060006127109150600a8481151561111457fe5b0490505b8181111561112b57600a82029150611118565b5b8181101561114857600a8281151561114057fe5b04915061112c565b816032028410151561115b576005820291505b81828581151561116757fe5b040292505050919050565b600154341015151561118357600080fd5b6000600360003373ffffffffffffffffffffffffffffffffffffffff1673ffffffffffffffffffffffffffffffffffffffff16815260200190815260200160002060009054906101000a900463ffffffff1663ffffffff161415156111e757600080fd5b6000601481819054906101000a900463ffffffff1660010191906101000a81548163ffffffff021916908363ffffffff1602179055600360003373ffffffffffffffffffffffffffffffffffffffff1673ffffffffffffffffffffffffffffffffffffffff16815260200190815260200160002060006101000a81548163ffffffff021916908363ffffffff16021790555033600260008060149054906101000a900463ffffffff1663ffffffff1663ffffffff16815260200190815260200160002060006101000a81548173ffffffffffffffffffffffffffffffffffffffff021916908373ffffffffffffffffffffffffffffffffffffffff160217905550565b60008060006127109150600a8481151561130057fe5b0490505b8181111561131757600a82029150611304565b5b8181101561133457600a8281151561132c57fe5b049150611318565b8160320284101515611347576005820291505b816001836001870381151561135857fe5b04010292505050919050565b600460009054906101000a900463ffffffff1681565b6060806000600460009054906101000a900463ffffffff1663ffffffff166040519080825280602002602001820160405280156113c65781602001602082028038833980820191505090505b509250600460009054906101000a900463ffffffff1663ffffffff166040519080825280602002602001820160405280156114105781602001602082028038833980820191505090505b509150600190505b600460009054906101000a900463ffffffff1663ffffffff168163ffffffff1611151561151357600660008263ffffffff1663ffffffff16815260200190815260200160002060009054906101000a900473ffffffffffffffffffffffffffffffffffffffff16836001830363ffffffff1681518110151561149657fe5b9060200190602002019073ffffffffffffffffffffffffffffffffffffffff16908173ffffffffffffffffffffffffffffffffffffffff168152505080826001830363ffffffff168151811015156114ea57fe5b9060200190602002019063ffffffff16908163ffffffff16815250508080600101915050611418565b509091565b600080600b60003373ffffffffffffffffffffffffffffffffffffffff1673ffffffffffffffffffffffffffffffffffffffff16815260200190815260200160002060009054906101000a900463ffffffff16915060008263ffffffff1614151561165357600d60008063ffffffff16815260200190815260200160002060008363ffffffff1663ffffffff16815260200190815260200160002090506115c381600101548461071d565b81600101819055503373ffffffffffffffffffffffffffffffffffffffff168360405160006040518083038185875af192505050151561160257600080fd5b3373ffffffffffffffffffffffffffffffffffffffff1660007ff5268115655ff7b41f1875fc9490ca950f18b2beac911d3967f69972b90f4590856040518082815260200191505060405180910390a35b505050565b6000806116636118a5565b9150600d60008063ffffffff16815260200190815260200160002060008363ffffffff1663ffffffff16815260200190815260200160002090506116ab816001015434610bc2565b81600101819055503373ffffffffffffffffffffffffffffffffffffffff1660007f4393fbdb02c15e0ec05c3d79e1bf4cdbbe880420d65b41ef8cfeb6ac46ed062f346040518082815260200191505060405180910390a35050565b6060806000600960009054906101000a900463ffffffff1663ffffffff166040519080825280602002602001820160405280156117535781602001602082028038833980820191505090505b509250600960009054906101000a900463ffffffff1663ffffffff1660405190808252806020026020018201604052801561179d5781602001602082028038833980820191505090505b509150600190505b600960009054906101000a900463ffffffff1663ffffffff168163ffffffff161115156118a057600a60008263ffffffff1663ffffffff16815260200190815260200160002060009054906101000a900473ffffffffffffffffffffffffffffffffffffffff16836001830363ffffffff1681518110151561182357fe5b9060200190602002019073ffffffffffffffffffffffffffffffffffffffff16908173ffffffffffffffffffffffffffffffffffffffff168152505080826001830363ffffffff1681518110151561187757fe5b9060200190602002019063ffffffff16908163ffffffff168152505080806001019150506117a5565b509091565b600080600b60003373ffffffffffffffffffffffffffffffffffffffff1673ffffffffffffffffffffffffffffffffffffffff16815260200190815260200160002060009054906101000a900463ffffffff1663ffffffff161415611a07576009600081819054906101000a900463ffffffff1660010191906101000a81548163ffffffff021916908363ffffffff1602179055600b60003373ffffffffffffffffffffffffffffffffffffffff1673ffffffffffffffffffffffffffffffffffffffff16815260200190815260200160002060006101000a81548163ffffffff021916908363ffffffff16021790555033600a6000600960009054906101000a900463ffffffff1663ffffffff1663ffffffff16815260200190815260200160002060006101000a81548173ffffffffffffffffffffffffffffffffffffffff021916908373ffffffffffffffffffffffffffffffffffffffff1602179055505b600b60003373ffffffffffffffffffffffffffffffffffffffff1673ffffffffffffffffffffffffffffffffffffffff16815260200190815260200160002060009054906101000a900463ffffffff169050905600a165627a7a723058207023d96df39dfc09e1475bda844988c0a5be28acfff64277bb5520e6b0c506570029",
  "source": "pragma solidity ^0.4.24;\n\ncontract SafeMath {\n  function Mul(uint a, uint b) pure public returns (uint) {\n    uint c = a * b;\n    assert(a == 0 || c / a == b);\n    return c;\n  }\n\n  function Sub(uint a, uint b) pure public returns (uint) {\n    assert(b <= a);\n    return a - b;\n  }\n\n  function Add(uint a, uint b) pure public returns (uint) {\n    uint c = a + b;\n    assert(c>=a && c>=b);\n    return c;\n  }\n}\n\ncontract Token {\n  /// @return total amount of tokens\n  function totalSupply() constant public returns (uint256 supply) {}\n\n  /// @param _owner The address from which the balance will be retrieved\n  /// @return The balance\n  function balanceOf(address _owner) constant public returns (uint256 balance) {}\n\n  /// @notice send `_value` token to `_to` from `msg.sender`\n  /// @param _to The address of the recipient\n  /// @param _value The amount of token to be transferred\n  /// @return Whether the transfer was successful or not\n  function transfer(address _to, uint256 _value) public returns (bool success) {}\n\n  /// @notice send `_value` token to `_to` from `_from` on the condition it is approved by `_from`\n  /// @param _from The address of the sender\n  /// @param _to The address of the recipient\n  /// @param _value The amount of token to be transferred\n  /// @return Whether the transfer was successful or not\n  function transferFrom(address _from, address _to, uint256 _value) returns (bool success) {}\n\n  /// @notice `msg.sender` approves `_addr` to spend `_value` tokens\n  /// @param _spender The address of the account able to transfer the tokens\n  /// @param _value The amount of wei to be approved for transfer\n  /// @return Whether the approval was successful or not\n  function approve(address _spender, uint256 _value) returns (bool success) {}\n\n  /// @param _owner The address of the account owning tokens\n  /// @param _spender The address of the account able to transfer the tokens\n  /// @return Amount of remaining tokens allowed to spent\n  function allowance(address _owner, address _spender) constant returns (uint256 remaining) {}\n\n  event Transfer(address indexed _from, address indexed _to, uint256 _value);\n  event Approval(address indexed _owner, address indexed _spender, uint256 _value);\n\n  uint public decimals;\n  string public name;\n}\n\ncontract DEXHIGH2 is SafeMath\n{\n    event Deposit(uint32 indexed prCode, address indexed owner, uint amount);\n    event Withdraw(uint32 indexed prCode, address indexed owner, uint amount);\n\n    event NewOrder(uint32 indexed prTrade, uint32 indexed prBase, address indexed owner, uint32 id, bool isSell, uint price, uint amount, uint64 timestamp);\n    event NewAsk(uint32 indexed prTrade, uint32 indexed prBase, uint price);\n    event NewBid(uint32 indexed prTrade, uint32 indexed prBase, uint price);\n    event NewTrade(uint32 prTrade, uint32 prBase, uint32 indexed bidId, uint32 indexed askId, bool isSell, uint price, uint amount, uint64 timestamp);\n\n    function DEXHIGH2() public\n    {\n        owner = msg.sender;\n        AddOwner();\n        productId = 1; // productId == 1 -> ETH 0x0\n    }\n\n    address owner;\n    // Functions with this modifier can only be executed by the owner\n    modifier onlyOwner() {\n        require(msg.sender == owner);\n        _;\n    }\n\n    uint32 public ownerId;\n    uint256 public newOwnerFee;\n    mapping (uint32 => address) id_owner;\n    mapping (address => uint32) owner_id;\n\n    function AddOwner() public payable\n    {\n        require(msg.value >= newOwnerFee);\n        require(owner_id[msg.sender] == 0);\n\n        owner_id[msg.sender] = ++ownerId;\n        id_owner[ownerId] = msg.sender;\n    }\n\n    function SetOwnerFee(uint256 ownerFee) onlyOwner public\n    {\n        newOwnerFee = ownerFee;\n    }\n\n    function GetOnwerList() view public returns (address[] owners, uint32[] ownerIds)\n    {\n        owners = new address[](ownerId);\n        ownerIds = new uint32[](ownerId);\n\n        for (uint32 i = 1; i <= ownerId; i++)\n        {\n            owners[i - 1] = id_owner[i];\n            ownerIds[i - 1] = i;\n        }\n    }\n\n    uint32 public productId;\n    uint256 public newProductFee;\n    mapping (uint32 => address) prCode_product;\n    mapping (address => uint32) product_prCode;\n    mapping (uint32 => uint32) prCode_ownerId;\n\n    function AddProduct(address product) payable public\n    {\n        require(msg.value >= newProductFee);\n        require(product_prCode[product] == 0);\n        uint32 ownerId = owner_id[msg.sender];\n        require(ownerId != 0);\n\n        product_prCode[product] = ++productId;\n        prCode_product[productId] = product;\n        prCode_ownerId[productId] = ownerId;\n    }\n    function SetProductFee(uint productFee) onlyOwner public\n    {\n        newProductFee = productFee;\n    }\n    function GetProductList() constant public returns (address[] products, uint32[] productIds)\n    {\n        products = new address[](productId);\n        productIds = new uint32[](productId);\n\n        for (uint32 i = 1; i <= productId; i++)\n        {\n            products[i - 1] = prCode_product[i];\n            productIds[i - 1] = i;\n        }\n    }\n\n    uint32 public acccountId;\n    mapping (uint32 => address) id_account;\n    mapping (address => uint32) account_id;\n    function FindOrAddAccount() private returns (uint32)\n    {\n        if (account_id[msg.sender] == 0)\n        {\n            account_id[msg.sender] = ++acccountId;\n            id_account[acccountId] = msg.sender;\n        }\n        return account_id[msg.sender];\n    }\n    function GetAccountList() constant public returns (address[] owners, uint32[] Ids)\n    {\n        owners = new address[](acccountId);\n        Ids = new uint32[](acccountId);\n\n        for (uint32 i = 1; i <= acccountId; i++)\n        {\n            owners[i - 1] = id_account[i];\n            Ids[i - 1] = i;\n        }\n    }\n\n\n    struct ListItem\n    {\n        uint32 prev;\n        uint32 next;\n    }\n\n    struct OrderLink\n    {\n        uint32 orderN;\n        uint32 firstId;\n        uint32 lastId;\n        uint256 nextPrice;\n        uint256 prevPrice;\n        mapping (uint32 => ListItem) id_orderList;\n    }\n\n    struct OrderBook\n    {\n        uint256 bestBidPrice;\n        uint256 bestAskPrice;\n\n        mapping (uint32 => OrderLink) bidPrice_Order;\n        mapping (uint32 => OrderLink) askPrice_Order;\n    }\n    mapping (uint32 => mapping (uint32 => OrderBook)) basePID_tradePID_orderBook;\n\n    struct Balance\n    {\n        uint reserved;\n        uint available;\n    }\n\n    struct Order\n    {\n        uint32 accountID;\n        address token;\n        uint256 qty;\n        uint64 price;\n        bool sell;\n        uint64 timestamp;\n    }\n\n    mapping (uint32 => mapping (uint32 => Balance)) prCode_AccountId_Balance;\n\n    function depositETH() payable public\n    {\n        uint32 accountId = FindOrAddAccount();\n\n        Balance storage balance = prCode_AccountId_Balance[0][accountId];\n        balance.available = SafeMath.Add(balance.available, msg.value);\n        Deposit(0, msg.sender, msg.value);\n    }\n\n    function withdrawETH(uint amount) public\n    {\n        uint32 accountId = account_id[msg.sender];\n        if (accountId != 0)\n        {\n            Balance storage balance = prCode_AccountId_Balance[0][accountId];\n            balance.available = SafeMath.Sub(balance.available, amount);\n            require(msg.sender.call.value(amount)());\n            Withdraw(0, msg.sender, amount);\n        }\n    }\n\n    function depositERC20(address token, uint amount) public\n    {\n        uint32 prCode = product_prCode[token];\n        require(prCode != 0);\n\n        uint32 accountId = FindOrAddAccount();\n\n        require(Token(token).transferFrom(msg.sender, this, amount));\n\n        Balance storage balance = prCode_AccountId_Balance[prCode][accountId];\n        balance.available = SafeMath.Add(balance.available, amount);\n        Deposit(prCode, msg.sender, amount);\n    }\n\n    function withdrawERC20(address token, uint amount) public\n    {\n        uint32 prCode = product_prCode[token];\n        require(prCode != 0);\n\n        uint32 accountId = account_id[msg.sender];\n\n        if (accountId != 0)\n        {\n            Balance storage balance = prCode_AccountId_Balance[prCode][accountId];\n            balance.available = SafeMath.Sub(balance.available, amount);\n            require(Token(token).transfer(msg.sender, amount));\n            Withdraw(prCode, msg.sender, amount);\n        }\n    }\n\n    function GetDownTick(uint price) public returns (uint)\n    {\n        uint tick = 10000;\n\n        uint priceTenPercent = price / 10;\n\n        while (priceTenPercent > tick)\n        {\n            tick *= 10;\n        }\n\n        while (priceTenPercent < tick)\n        {\n            tick /= 10;\n        }\n\n        if (price >= 50 * tick)\n        {\n            tick *= 5;\n        }\n\n        return (price / tick) * tick;\n    }\n\n    function GetUpTick(uint price) public returns (uint)\n    {\n        uint tick = 10000;\n\n        uint priceTenPercent = price / 10;\n\n        while (priceTenPercent > tick)\n        {\n            tick *= 10;\n        }\n\n        while (priceTenPercent < tick)\n        {\n            tick /= 10;\n        }\n\n        if (price >= 50 * tick)\n        {\n            tick *= 5;\n        }\n\n        return (((price - 1) / tick) + 1) * tick;\n    }\n}\n",
  "sourcePath": "/Users/neo/dexNodejs/contracts/contracts/DEXHIGH.sol",
  "compiler": {
    "name": "solc",
    "version": "0.4.24+commit.e67f0147.Emscripten.clang"
  },
  "schemaVersion": "2.0.1",
  "updatedAt": "2018-11-23T01:44:03.841Z"
}