{
  "contractName": "SafeMath",
  "abi": [
    {
      "constant": true,
      "inputs": [
        {
          "name": "a",
          "type": "uint256"
        },
        {
          "name": "b",
          "type": "uint256"
        }
      ],
      "name": "Mul",
      "outputs": [
        {
          "name": "",
          "type": "uint256"
        }
      ],
      "payable": false,
      "stateMutability": "pure",
      "type": "function"
    },
    {
      "constant": true,
      "inputs": [
        {
          "name": "a",
          "type": "uint256"
        },
        {
          "name": "b",
          "type": "uint256"
        }
      ],
      "name": "Sub",
      "outputs": [
        {
          "name": "",
          "type": "uint256"
        }
      ],
      "payable": false,
      "stateMutability": "pure",
      "type": "function"
    },
    {
      "constant": true,
      "inputs": [
        {
          "name": "a",
          "type": "uint256"
        },
        {
          "name": "b",
          "type": "uint256"
        }
      ],
      "name": "Add",
      "outputs": [
        {
          "name": "",
          "type": "uint256"
        }
      ],
      "payable": false,
      "stateMutability": "pure",
      "type": "function"
    }
  ],
  "bytecode": "0x608060405234801561001057600080fd5b506101df806100206000396000f300608060405260043610610057576000357c0100000000000000000000000000000000000000000000000000000000900463ffffffff1680631ec9c2c01461005c57806360953744146100a75780637afbe4f1146100f2575b600080fd5b34801561006857600080fd5b50610091600480360381019080803590602001909291908035906020019092919050505061013d565b6040518082815260200191505060405180910390f35b3480156100b357600080fd5b506100dc6004803603810190808035906020019092919080359060200190929190505050610156565b6040518082815260200191505060405180910390f35b3480156100fe57600080fd5b506101276004803603810190808035906020019092919080359060200190929190505050610189565b6040518082815260200191505060405180910390f35b600082821115151561014b57fe5b818303905092915050565b60008082840290506000841480610177575082848281151561017457fe5b04145b151561017f57fe5b8091505092915050565b60008082840190508381101580156101a15750828110155b15156101a957fe5b80915050929150505600a165627a7a7230582073bd759f4feff8046546e34d36a02fd757fc20b6df18667be26ed40560f5fb5f0029",
  "source": "pragma solidity ^0.4.24;\n\ncontract SafeMath {\n  function Mul(uint a, uint b) pure public returns (uint) {\n    uint c = a * b;\n    assert(a == 0 || c / a == b);\n    return c;\n  }\n\n  function Sub(uint a, uint b) pure public returns (uint) {\n    assert(b <= a);\n    return a - b;\n  }\n\n  function Add(uint a, uint b) pure public returns (uint) {\n    uint c = a + b;\n    assert(c>=a && c>=b);\n    return c;\n  }\n}\n\ncontract Token {\n  /// @return total amount of tokens\n  function totalSupply() constant public returns (uint256 supply) {}\n\n  /// @param _owner The address from which the balance will be retrieved\n  /// @return The balance\n  function balanceOf(address _owner) constant public returns (uint256 balance) {}\n\n  /// @notice send `_value` token to `_to` from `msg.sender`\n  /// @param _to The address of the recipient\n  /// @param _value The amount of token to be transferred\n  /// @return Whether the transfer was successful or not\n  function transfer(address _to, uint256 _value) public returns (bool success) {}\n\n  /// @notice send `_value` token to `_to` from `_from` on the condition it is approved by `_from`\n  /// @param _from The address of the sender\n  /// @param _to The address of the recipient\n  /// @param _value The amount of token to be transferred\n  /// @return Whether the transfer was successful or not\n  function transferFrom(address _from, address _to, uint256 _value) returns (bool success) {}\n\n  /// @notice `msg.sender` approves `_addr` to spend `_value` tokens\n  /// @param _spender The address of the account able to transfer the tokens\n  /// @param _value The amount of wei to be approved for transfer\n  /// @return Whether the approval was successful or not\n  function approve(address _spender, uint256 _value) returns (bool success) {}\n\n  /// @param _owner The address of the account owning tokens\n  /// @param _spender The address of the account able to transfer the tokens\n  /// @return Amount of remaining tokens allowed to spent\n  function allowance(address _owner, address _spender) constant returns (uint256 remaining) {}\n\n  event Transfer(address indexed _from, address indexed _to, uint256 _value);\n  event Approval(address indexed _owner, address indexed _spender, uint256 _value);\n\n  uint public decimals;\n  string public name;\n}\n\ncontract DEXHIGH2 is SafeMath\n{\n    event Deposit(uint32 indexed prCode, address indexed owner, uint amount);\n    event Withdraw(uint32 indexed prCode, address indexed owner, uint amount);\n\n    event NewOrder(uint32 indexed prTrade, uint32 indexed prBase, address indexed owner, uint32 id, bool isSell, uint price, uint amount, uint64 timestamp);\n    event NewAsk(uint32 indexed prTrade, uint32 indexed prBase, uint price);\n    event NewBid(uint32 indexed prTrade, uint32 indexed prBase, uint price);\n    event NewTrade(uint32 prTrade, uint32 prBase, uint32 indexed bidId, uint32 indexed askId, bool isSell, uint price, uint amount, uint64 timestamp);\n\n    function DEXHIGH2() public\n    {\n        owner = msg.sender;\n        AddOwner();\n        productId = 1; // productId == 1 -> ETH 0x0\n    }\n\n    address owner;\n    // Functions with this modifier can only be executed by the owner\n    modifier onlyOwner() {\n        require(msg.sender == owner);\n        _;\n    }\n\n    uint32 public ownerId;\n    uint256 public newOwnerFee;\n    mapping (uint32 => address) id_owner;\n    mapping (address => uint32) owner_id;\n\n    function AddOwner() public payable\n    {\n        require(msg.value >= newOwnerFee);\n        require(owner_id[msg.sender] == 0);\n\n        owner_id[msg.sender] = ++ownerId;\n        id_owner[ownerId] = msg.sender;\n    }\n\n    function SetOwnerFee(uint256 ownerFee) onlyOwner public\n    {\n        newOwnerFee = ownerFee;\n    }\n\n    function GetOnwerList() view public returns (address[] owners, uint32[] ownerIds)\n    {\n        owners = new address[](ownerId);\n        ownerIds = new uint32[](ownerId);\n\n        for (uint32 i = 1; i <= ownerId; i++)\n        {\n            owners[i - 1] = id_owner[i];\n            ownerIds[i - 1] = i;\n        }\n    }\n\n    uint32 public productId;\n    uint256 public newProductFee;\n    mapping (uint32 => address) prCode_product;\n    mapping (address => uint32) product_prCode;\n    mapping (uint32 => uint32) prCode_ownerId;\n\n    function AddProduct(address product) payable public\n    {\n        require(msg.value >= newProductFee);\n        require(product_prCode[product] == 0);\n        uint32 ownerId = owner_id[msg.sender];\n        require(ownerId != 0);\n\n        product_prCode[product] = ++productId;\n        prCode_product[productId] = product;\n        prCode_ownerId[productId] = ownerId;\n    }\n    function SetProductFee(uint productFee) onlyOwner public\n    {\n        newProductFee = productFee;\n    }\n    function GetProductList() constant public returns (address[] products, uint32[] productIds)\n    {\n        products = new address[](productId);\n        productIds = new uint32[](productId);\n\n        for (uint32 i = 1; i <= productId; i++)\n        {\n            products[i - 1] = prCode_product[i];\n            productIds[i - 1] = i;\n        }\n    }\n\n    uint32 public acccountId;\n    mapping (uint32 => address) id_account;\n    mapping (address => uint32) account_id;\n    function FindOrAddAccount() private returns (uint32)\n    {\n        if (account_id[msg.sender] == 0)\n        {\n            account_id[msg.sender] = ++acccountId;\n            id_account[acccountId] = msg.sender;\n        }\n        return account_id[msg.sender];\n    }\n    function GetAccountList() constant public returns (address[] owners, uint32[] Ids)\n    {\n        owners = new address[](acccountId);\n        Ids = new uint32[](acccountId);\n\n        for (uint32 i = 1; i <= acccountId; i++)\n        {\n            owners[i - 1] = id_account[i];\n            Ids[i - 1] = i;\n        }\n    }\n\n\n    struct ListItem\n    {\n        uint32 prev;\n        uint32 next;\n    }\n\n    struct OrderLink\n    {\n        uint32 orderN;\n        uint32 firstId;\n        uint32 lastId;\n        uint256 nextPrice;\n        uint256 prevPrice;\n        mapping (uint32 => ListItem) id_orderList;\n    }\n\n    struct OrderBook\n    {\n        uint256 bestBidPrice;\n        uint256 bestAskPrice;\n\n        mapping (uint32 => OrderLink) bidPrice_Order;\n        mapping (uint32 => OrderLink) askPrice_Order;\n    }\n    mapping (uint32 => mapping (uint32 => OrderBook)) basePID_tradePID_orderBook;\n\n    struct Balance\n    {\n        uint reserved;\n        uint available;\n    }\n\n    struct Order\n    {\n        uint32 accountID;\n        address token;\n        uint256 qty;\n        uint64 price;\n        bool sell;\n        uint64 timestamp;\n    }\n\n    mapping (uint32 => mapping (uint32 => Balance)) prCode_AccountId_Balance;\n\n    function depositETH() payable public\n    {\n        uint32 accountId = FindOrAddAccount();\n\n        Balance storage balance = prCode_AccountId_Balance[0][accountId];\n        balance.available = SafeMath.Add(balance.available, msg.value);\n        Deposit(0, msg.sender, msg.value);\n    }\n\n    function withdrawETH(uint amount) public\n    {\n        uint32 accountId = account_id[msg.sender];\n        if (accountId != 0)\n        {\n            Balance storage balance = prCode_AccountId_Balance[0][accountId];\n            balance.available = SafeMath.Sub(balance.available, amount);\n            require(msg.sender.call.value(amount)());\n            Withdraw(0, msg.sender, amount);\n        }\n    }\n\n    function depositERC20(address token, uint amount) public\n    {\n        uint32 prCode = product_prCode[token];\n        require(prCode != 0);\n\n        uint32 accountId = FindOrAddAccount();\n\n        require(Token(token).transferFrom(msg.sender, this, amount));\n\n        Balance storage balance = prCode_AccountId_Balance[prCode][accountId];\n        balance.available = SafeMath.Add(balance.available, amount);\n        Deposit(prCode, msg.sender, amount);\n    }\n\n    function withdrawERC20(address token, uint amount) public\n    {\n        uint32 prCode = product_prCode[token];\n        require(prCode != 0);\n\n        uint32 accountId = account_id[msg.sender];\n\n        if (accountId != 0)\n        {\n            Balance storage balance = prCode_AccountId_Balance[prCode][accountId];\n            balance.available = SafeMath.Sub(balance.available, amount);\n            require(Token(token).transfer(msg.sender, amount));\n            Withdraw(prCode, msg.sender, amount);\n        }\n    }\n\n    function GetDownTick(uint price) public returns (uint)\n    {\n        uint tick = 10000;\n\n        uint priceTenPercent = price / 10;\n\n        while (priceTenPercent > tick)\n        {\n            tick *= 10;\n        }\n\n        while (priceTenPercent < tick)\n        {\n            tick /= 10;\n        }\n\n        if (price >= 50 * tick)\n        {\n            tick *= 5;\n        }\n\n        return (price / tick) * tick;\n    }\n\n    function GetUpTick(uint price) public returns (uint)\n    {\n        uint tick = 10000;\n\n        uint priceTenPercent = price / 10;\n\n        while (priceTenPercent > tick)\n        {\n            tick *= 10;\n        }\n\n        while (priceTenPercent < tick)\n        {\n            tick /= 10;\n        }\n\n        if (price >= 50 * tick)\n        {\n            tick *= 5;\n        }\n\n        return (((price - 1) / tick) + 1) * tick;\n    }\n}\n",
  "sourcePath": "/Users/neo/dexNodejs/contracts/contracts/DEXHIGH.sol",
  "compiler": {
    "name": "solc",
    "version": "0.4.24+commit.e67f0147.Emscripten.clang"
  },
  "schemaVersion": "2.0.1",
  "updatedAt": "2018-11-22T10:05:51.909Z"
}